:100000000A128A11F52FFF1B0D2883137F188317FF
:100010000008840A0319FF0A080000308A00040857
:10002000840A82070034013400340A340034643412
:100030000034E834033410342734523469346334E0
:100040006134723464346F340034443461346E3457
:10005000693465346C34003425343234643400340B
:1006FC0008340A128A119E230A128A1183160313D4
:10070C00111408000A128A119E230A128A118316E8
:10071C000313111508002830831203139400831659
:10072C0003139101940127309300871507160800D5
:10073C00831603131419A32BA42B9E2B11081F39FA
:10074C00031DA92BAA2B9E2B0800F0000A128A115C
:10075C009E230A128A1170088312031393008C1DB6
:10076C00B82BB92BB52B8C110800F100F0013A30E5
:10077C0071020318C22BC32BCB2B30307102031C1C
:10078C00C82BC92BCB2BF001F00A700C0800F3001E
:10079C007D08FF007F08F304730804380A128A11DD
:1007AC001B240A128A117308FB390A128A111B24A2
:1007BC000A128A114230F200F20BE22B0000080000
:1007CC00F500FD017508F0390A128A11CD230A12C1
:1007DC008A117508F40003300310F40DFF3E031D5D
:1007EC00F22B0310740DF0390A128A11CD230A1260
:1007FC008A110800F500FD01FD0A7508F0390A128E
:10080C008A11CD230A128A117508F40003300310E3
:10081C00F40DFF3E031D0D2C0310740DF0390A125C
:10082C008A11CD230A128A110800F1000A128A11CA
:10083C007F230A128A118312031337080A128A11B2
:10084C00AB230A128A1171088312031338040A129B
:10085C008A11AB230A128A110A128A1188230A12EE
:10086C008A110800F401F501701C3D2C3E2C442C1F
:10087C007208F4070318F50A7308F5070130031022
:10088C00F20DF30DFF3E031D452C01300310F10C4E
:10089C00F00CFF3E031D4C2C70087104031D572CEB
:1008AC00582C3A2C7508F1007408F0000800F90077
:1008BC007F2C7608BF3E0A128A11E6230A128A118F
:1008CC00922C7608933E0A128A11E6230A128A1198
:1008DC00922C7608D33E0A128A11E6230A128A1148
:1008EC00922C76087F3E0A128A11E6230A128A118C
:1008FC00922C7908F700F8017808003A0319872C34
:10090C00772C7708023A03195F2C013A0319672CEC
:10091C00073A03196F2C772C080077087804031911
:10092C00982C992CC82CFB01FB0AA72C0130031026
:10093C00F70DF80DFF3E031D9D2C0130FF007F08C5
:10094C00FB07F81FAA2CAB2C9C2C78087A02031DF1
:10095C00B12C77087902031CB42CB52CBB2C77086E
:10096C00F9027808031CFA03FA0201300310F80CA0
:10097C00F70CFF3E031DBC2C0130FB02031DC72CE2
:10098C00C82CAB2C7A08F8007908F7000800FB019A
:10099C00FC01F22C7B087607F9007708F8000318A5
:1009AC00F80AFB1FDA2CF8037808FA007A0883128D
:1009BC000313FF00790884000A128A1103200A121B
:1009CC008A110A128A1100240A128A110130FB07BB
:1009DC000318FC0A0030FC077B087607F90077083F
:1009EC00F8000318F80AFB1FFC2CF8037808FA002F
:1009FC007A0883120313FF00790884000A128A1103
:100A0C0003200A128A11003A031D0D2D0E2DD02C35
:100A1C000800F401F501700871040319162D172D47
:100A2C004E2DF601F60A252D01300310F00DF10DB7
:100A3C00FF3E031D1B2D0130FF007F08F607F11F41
:100A4C00282D292D1A2D01300310F40DF50DFF3E24
:100A5C00031D2A2D71087302031D362D70087202B6
:100A6C00031C392D3A2D412D7008F2027108031C1C
:100A7C00F303F302741401300310F10CF00CFF3E7D
:100A8C00031D422D0130F602031D4D2D4E2D292D37
:100A9C007508F1007408F00008000A128A119123FD
:100AAC000A128A114E300A128A11E3250A128A118F
:100ABC00F601F60A01300A128A115D240A128A1113
:100ACC000B30F6008030F7000A128A11CD240A127E
:100ADC008A11F601F60A02300A128A115D240A12F2
:100AEC008A111330F6008030F7000A128A11CD24D7
:100AFC000A128A1183160313880183120313B5019A
:100B0C00B601831203138813033083120313B1004D
:100B1C000830B0007630AF00AF0B922DB00B922D99
:100B2C00B10B922D0000831203138817033083122C
:100B3C000313B1000830B0007630AF00AF0BA42D1A
:100B4C00B00BA42DB10BA42D00000F30F60001301A
:100B5C000A128A115D240A128A111A3083120313A5
:100B6C00A0003608A2003508A10032300A128A1102
:100B7C007F260A128A113230F6000030F7000A1272
:100B8C008A11CD240A128A11013083120313B5077E
:100B9C000318B60A0030B6073608803AFF008030DA
:100BAC007F02031DDB2D64303502031CDE2DDF2D8F
:100BBC00872D832D0A128A110028F90079088312D7
:100BCC000313B70000300A128A111B240A128A116F
:100BDC009C30F700D730F600F60BF22DF70BF22D08
:100BEC0003300A128A11E6230A128A111A30F7000E
:100BFC00F830F600F60B002EF70B002E0000033039
:100C0C000A128A11E6230A128A111A30F700F830F8
:100C1C00F600F60B0F2EF70B0F2E000003300A1206
:100C2C008A11E6230A128A111A30F700F830F600FE
:100C3C00F60B1E2EF70B1E2E000002300A128A1124
:100C4C00E6230A128A111A30F700F830F600F60B78
:100C5C002D2EF70B2D2E000028300A128A11E623B8
:100C6C000A128A110230F8000430F700BA30F6008C
:100C7C00F60B3E2EF70B3E2EF80B3E2E00000C30E2
:100C8C000A128A11E6230A128A110230F800043083
:100C9C00F700BA30F600F60B512EF70B512EF80B6D
:100CAC00512E000001300A128A11E6230A128A1111
:100CBC000230F8000430F700BA30F600F60B642E60
:100CCC00F70B642EF80B642E000006300A128A1102
:100CDC00E6230A128A110230F8000430F700BA3009
:100CEC00F600F60B772EF70B772EF80B772E00000D
:100CFC00080083120313AB002130A600E02F25302F
:100D0C002E0603198A2E8B2E952E2B0884002E0866
:100D1C00831380000130FF007F08AB07E02FAC018C
:100D2C00AD01A801200884000A128A110D200A12B4
:100D3C008A110A128A11BB230A128A11031CA72ECC
:100D4C00A82EE82E83120313AC01AD010A30F0007B
:100D5C000030F100831203132D08F3002C08F2006D
:100D6C000A128A1138240A128A1171088312031389
:100D7C00AD007008AC00200884000A128A110D2006
:100D8C000A128A11D03EA300FF3003180030A400D1
:100D9C002308AC070318AD0A2408AD070130FF0087
:100DAC007F08A007200884000A128A110D200A125D
:100DBC008A110A128A11BB230A128A110318E72E10
:100DCC00E82EAC2E013083120313A007FF3020074E
:100DDC0084000A128A110D200A128A11AE00A30097
:100DEC00A4012408003A0319FC2EE02F2308003A32
:100DFC000319F02F643A0319072F0D3A0319072F23
:100E0C00E02F2608840083130008A900840A000838
:100E1C00AA000230FF007F08A607AA1F162F172F63
:100E2C00202F0330FF007F08A804A909AA09A90AEA
:100E3C000319AA0AAE01AE0A2E08A3002307013E2D
:100E4C0084000A128A110D200A128A11A4000A12B7
:100E5C008A110D200A128A11A50025082A02031DE9
:100E6C00392F2408290203183C2F3D2F3E2F482FE1
:100E7C000130FF007F08AE0705302E06031D472FFB
:100E8C00482F222F2C082D0403194D2F4E2F5A2F8B
:100E9C00280803390319532F542F5A2FFF30AC074E
:100EAC000318AD0AFF30AD072D08803A803C031DB6
:100EBC00612F2C082E020318642F652F712F8312BB
:100ECC0003132E08A300A4012308AC022408031C5E
:100EDC00AD03AD02752F83120313AC01AD012C08C9
:100EEC002D0403197A2F7B2F902F2B088400203090
:100EFC00831380000130FF007F08AB07FF30AC0785
:100F0C000318AD0AFF30AD072C082D04031D8F2FDD
:100F1C00902F7B2F280803390319952F962F9F2F7D
:100F2C002B0884002D30831380000130FF007F08D4
:100F3C00AB072E08A700D72F0A30F7000030F800B7
:100F4C002708A3002307013E84000A128A110D20F2
:100F5C000A128A11F0000A128A110D200A128A1143
:100F6C00F1002A08F3002908F2000A128A110F2551
:100F7C000A128A117108FA007008F9000A128A1113
:100F8C0093240A128A117708303E83120313AE00A1
:100F9C002B0884002E08831380000130FF007F088B
:100FAC00AB07FF30FF007F08A707270A031DDF2FC1
:100FBC00E02FA22F0130A007FF30200784000A1277
:100FCC008A110D200A128A11AE002E08031DEF2F74
:100FDC00F02F852E2B0884008313800108000A1241
:100FEC008A117E230A128A11B800FD0183010A12AC
:040FFC008A11532DD6
:04400E00F22FFF3F4F
:00000001FF
